:100000000C9446000C9465000C9465000C946500FB
:100010000C9465000C94EC020C9465000C94650043
:100020000C9465000C9465000C9465000C946500BC
:100030000C9465000C9465000C94180C0C946500ED
:100040000C94F20B0C9465000C94ED000C942501BB
:100050000C9465000C9465000C9465000C9465008C
:100060000C9465000C9465000C9465000C9465007C
:100070000C9465000C9465000C94980A0C94BC0ACE
:100080000C9465000C9465000C94650011241FBE4F
:10009000CFEFD0E1DEBFCDBF11E0A0E0B1E0E2E301
:1000A000FBE100E00BBF02C007900D92A237B10741
:1000B000D9F717E0A2E7B1E001C01D92A031B10766
:1000C000E1F70E9467000C94980D0C940000A1E6E3
:1000D000B0E08C9188608C93E2E6F0E08081877FCD
:1000E0008083179A15981F9A81B3806781BB82B36A
:1000F000806782BB139A1B9A8C9184608C93808159
:100100008460808360E074E883E090E00E94C70030
:1001100060E072EC81E090E00E94750A0E941F028C
:100120000E94A50B0E94E80B1F9878942224332488
:1001300040E069E075E08BEA95E00E94810C41E0C7
:100140006DE675E080EF94E00E94810C42E061ED85
:1001500075E085EC96E00E94810C43E065E376E073
:1001600087E096E00E94810C44E069E976E080E453
:1001700094E00E94810C45E06DEF76E08CE49DE018
:100180000E94810C0E94AF0C80E090E008959B01DA
:10019000AC01119A1098189A84E0220F331F441F63
:1001A000551F8A95D1F760E070E880E790E00E94E3
:1001B000620D21501092900029B988E98AB986E031
:1001C00080939500B89AC09810927A0210927902A2
:1001D0001092FC021092FB0208951F920F920FB62C
:1001E0000F9211248F939F93EF93FF939CB1E09113
:1001F0007902EF5FE093790280917A02E817E1F0EB
:10020000FF27E758FE4F908381E08093780180912B
:10021000740190917501019690937501809374011A
:100220000F9754F0109275011092740181E090E0E4
:100230009093770180937601FF91EF919F918F9139
:100240000F900FBE0F901F9018951F920F920FB630
:100250000F9211248F939F93EF93FF93C09A8AE09C
:1002600090E000000000000000000197D1F790919D
:10027000FB028091FC02981759F0E091FC02EF5FBD
:10028000EF77E093FC02FF27E558FD4F80818CB9A2
:10029000559882E390E00000000000000000019704
:1002A000D1F7C098FF91EF919F918F910F900FBE62
:1002B0000F901F9018959091790280917A0298176B
:1002C000D1F3E0917A02EF5FE0937A02FF27E758DB
:1002D000FE4F808199270895282F9091FB029F5F00
:1002E0009F778091FC029817E1F3E92FFF27E558EB
:1002F000FD4F20839093FB02559A089590917902C7
:1003000080917A0220E030E0981711F021E030E08F
:10031000C9010895EF92FF920F931F93CF93DF933C
:100320007B01C0E0D0E08C0106C00E945B01F801B7
:1003300081938F012196CE15DF05BCF3CE01DF91AD
:10034000CF911F910F91FF90EF900895EF92FF9240
:100350000F931F93CF93DF937B01C0E0D0E08C011C
:1003600006C0F80181918F010E946C012196CE1583
:10037000DF05BCF3CE01DF91CF911F910F91FF906C
:10038000EF90089510927A021092790208951092D7
:10039000FC021092FB02089580917601992708953E
:1003A00010927701109276010895FF920F931F9398
:1003B000CF93DF93EC01FC0101900020E9F7319726
:1003C000FE2EF81A00E010E006C0FE01E20FF11D5B
:1003D00080810E946C01202F0F5F1F4F8F2D992766
:1003E00001960817190789F7DF91CF911F910F9197
:1003F000FF900895FF920F931F93CF93DF93EC012B
:10040000FC0101900020E9F73197FE2EF81A00E078
:1004100010E006C0FE01E20FF11D80810E946C0118
:10042000202F0F5F1F4F8F2D99270196081719074F
:1004300089F7DF91CF911F910F91FF9008958AB7AF
:1004400082608ABF8AB78E7F8ABF89B7806189BF81
:1004500087B3806F87BB88B38F7088BBE1E6F0E01D
:1004600080818F708083089580B1807F803F09F400
:100470006CC080ED97E000000000000000000197D4
:10048000D1F790B1907F903F09F45FC087B38F7030
:1004900087BB80916100806F8093610080916200D2
:1004A000806F8093620020ED37E0000000000000C4
:1004B000000021503040C9F786B3807F803F09F4A7
:1004C00044C0803291F0813220F4803109F03CC088
:1004D0000AC0803421F0803809F036C002C040E202
:1004E00005C040E103C040E801C040E451E0809114
:1004F000620088608093620028E93AE3000000000F
:100500000000000021503040C9F780916200877FD1
:100510008093620028E93AE3000000000000000038
:1005200021503040C9F7515011F7892F99278095F4
:100530009095807F907024E0959587952A95E1F7B6
:10054000482B842F99270895089580E090E008951E
:1005500087B3806F87BB88B38F7088BBE1E6F0E01C
:1005600080818F70808388B7806188BF08958232D0
:1005700071F1833260F4843111F1853118F48231E4
:10058000B1F423C08831A9F0813289F40EC08234DD
:1005900001F1833428F48432A1F0883241F40BC095
:1005A000843489F0883419F408C080E013C08FEFD8
:1005B00011C081E00FC082E00DC083E00BC084E079
:1005C00009C085E007C086E005C087E003C088E079
:1005D00001C089E0992708951F920F920FB60F92DC
:1005E00011242F933F934F935F936F937F938F9338
:1005F0009F93AF93BF93EF93FF93F8940E943402BD
:10060000982F813809F497C0823838F4813109F481
:100610004EC0813409F0B5C06CC0843809F425C0DF
:10062000883809F0AEC0949821E08091620088601B
:100630008093620084EC99E000000000000000005C
:100640000197D1F780916200877F8093620084ECEC
:1006500099E000000000000000000197D1F7215050
:1006600021F781E08093FD02D4C0959821E080912C
:10067000620088608093620084EC99E000000000D2
:10068000000000000197D1F780916200877F80937E
:10069000620084EC99E00000000000000000019777
:1006A000D1F7215021F781E08093FF02B2C09698E4
:1006B00021E08091620088608093620084EC99E080
:1006C00000000000000000000197D1F78091620057
:1006D000877F8093620084EC99E0000000000000B6
:1006E00000000197D1F7215021F781E08093FE02AD
:1006F00090C01B9821E08091620088608093620026
:1007000084EC99E000000000000000000197D1F7A0
:1007100080916200877F8093620084EC99E0000002
:100720000000000000000197D1F7215021F781E07F
:10073000809300036EC0809162008B7F8093620083
:1007400021E08091620088608093620084EC99E0EF
:1007500000000000000000000197D1F780916200C6
:10076000877F8093620084EC99E000000000000025
:1007700000000197D1F7215021F781E08093020317
:1007800048C01B988091FD02882389F0E091030303
:10079000EF5FE0930303E53020F4FF27EB5FF84FB2
:1007A0001AC0EB30C8F4FF27E550F94F14C0809110
:1007B000FE02882389F0E0910303EF5FE0930303D7
:1007C000E73020F4FF27E150F94F05C0ED3020F469
:1007D000FF27ED5FF84F908321E0809162008860F1
:1007E0008093620084EC99E00000000000000000AB
:1007F0000197D1F780916200877F8093620084EC3B
:1008000099E000000000000000000197D1F721509E
:1008100021F70E94E40B80E593EC0000000000004B
:1008200000000197D1F7949A959A969A1B9A809115
:10083000620084608093620080E593EC0000000019
:10084000000000000197D1F780E593EC0000000064
:10085000000000000197D1F70E94A8027894FF9150
:10086000EF91BF91AF919F918F917F916F915F9128
:100870004F913F912F910F900FBE0F901F901895A1
:10088000CF93DF93CDB7DEB760970FB6F894DEBF96
:100890000FBECDBF80E990ED000000000000000019
:1008A0000197D1F780E990ED000000000000000002
:1008B0000197D1F70E94CC01882309F483C00E94DC
:1008C000D00160E170E0CE0101960E948A01898129
:1008D0008A3A09F07CC08A818F3F09F078C08B8109
:1008E000873009F074C08C81833009F070C08D812D
:1008F000873BC9F0883B20F4873A09F063C006C003
:100900008D3CC9F08A3D09F05DC050C00D9903C00F
:100910001092060103C081E08093060160E170E05F
:1009200081E091E005C01F9A60E170E081E191E013
:100930000E94A60147C08E81882341F481E0809304
:1009400004031F9A8F81809300013CC08091620054
:100950008B7F8093620080E395E700000000000039
:1009600000000197D1F723E08091620088608093B6
:10097000620080E593EC0000000000000000019799
:10098000D1F780916200877F8093620080E593ECCD
:1009900000000000000000000197D1F7215021F76E
:1009A000809162008460809362000CC08E8180938D
:1009B00006078F81809307078885809308078985BC
:1009C000809309078AE090E00E94120D63CF609641
:1009D0000FB6F894DEBF0FBECDBFDF91CF91089563
:1009E000BF92CF92DF92EF92FF920F931F93CF931C
:1009F000DF9331E0B32E80E990ED000000000000AD
:100A000000000197D1F780E990ED000000000000A0
:100A100000000197D1F780910203882309F496C062
:100A20008091FE02882309F491C010920203109273
:100A3000FE0280910403882309F486C09598C0E0E3
:100A4000D7E02AE0E22E27E0F22E88810E94B7024A
:100A5000182FF70180810E94B7021817F9F025E0DE
:100A60008091620088608093620080E29EE40000D2
:100A70000000000000000197D1F780916200877F9D
:100A80008093620080E29EE400000000000000000D
:100A90000197D1F7215021F7BB2456C02196089425
:100AA000E11CF11CF7E0C630DF0709F0CECFBB2018
:100AB00009F44AC0949822E0809162008860809393
:100AC000620080ED97E00000000000000000019748
:100AD000D1F780916200877F8093620080ED97E07C
:100AE00000000000000000000197D1F7215021F71D
:100AF00096E0C92E97E0D92E86E5E82E81E0F82E03
:100B0000CCEFDFEF0CEF16E09E012B5F253010F4E9
:100B1000F60103C02B3030F4F80180810E94B70247
:100B2000F70180830894C11CD11C0894E11CF11CBE
:100B300021960F5F1F4FC630D10531F760E170E09D
:100B400081E591E00E94A601109203038AE090E003
:100B50000E94120D50CFCF92DF92EF92FF920F932F
:100B60001F93CF93DF9380E990ED00000000000019
:100B700000000197D1F780E990ED0000000000002F
:100B800000000197D1F7809102038823D9F1809169
:100B9000FD028823B9F1109202031092FD02109217
:100BA00004038FEF8093000156E0C52E57E0D52E49
:100BB00006E611E0CCEFDFEF4CEFE42E46E0F42E3A
:100BC0009E012B5F253010F4F60103C02B3030F46A
:100BD000F70180810E94B702F80180830894C11C4C
:100BE000D11C0F5F1F4F21960894E11CF11CC630E9
:100BF000D10531F760E170E081E691E00E94A60145
:100C0000109203038AE090E00E94120DACCF80E9BD
:100C100090ED00000000000000000197D1F780E98E
:100C200090ED00000000000000000197D1F78091D6
:100C30000203882309F4A4C080910003882309F4E7
:100C40009FC0109202031092000380910403882336
:100C500009F470C0809100018F3F11F50E94530A82
:100C6000882309F08DC0809106070E94B702809307
:100C70002601809107070E94B70280932701809187
:100C800008070E94B70280932801809109070E94FB
:100C9000B702809329018091000180932A0143C00B
:100CA0000E948907892B09F06BC00E94530A882390
:100CB00009F066C0809106070E94B7028093260162
:100CC000809107070E94B70280932701809108074F
:100CD0000E94B70280932801809109070E94B70201
:100CE000809329018091000180932A0125E0809161
:100CF000620088608093620080E197E2000000005B
:100D0000000000000197D1F780916200877F8093F7
:100D1000620080E197E200000000000000000197FF
:100D2000D1F7215021F760E170E081E291E00E946B
:100D3000A60126C026E08091620088608093620050
:100D400080EA96E800000000000000000197D1F75B
:100D500080916200877F8093620080EA96E80000BD
:100D60000000000000000197D1F7215021F794986E
:100D7000959896981B98809162008B7F8093620073
:100D80008AE090E00E94120D42CF80E990ED0000D1
:100D90000000000000000197D1F780E990ED00000D
:100DA0000000000000000197D1F780910203882322
:100DB00011F18091FF028823F1F01092FF0210924E
:100DC00004038FEF809300010E949908882369F43F
:100DD0001F9A81E080930403809100018093360183
:100DE00060E170E081E391E004C060E170E081E4E3
:100DF00091E00E94A6018AE090E00E94120DC5CF0A
:100E00001092FD021092FE021092FF021092000357
:100E1000109201038FEF8093000110920203109251
:100E2000030310920607109207071092080710920A
:100E3000090786E0E0E0F7E0982F11929A95E9F72C
:100E4000EAE0F7E011928A95E9F7109204031F98FF
:100E50000895CF93DF93CDB7DEB762970FB6F894BE
:100E6000DEBF0FBECDBF22E02A8794E09B8731E032
:100E70003C872D8792E29E878F87288B398B83E072
:100E80008A8B69E070E0CE010A960E94350B69E01A
:100E900070E0CE0101960E94190B97FF1EC023E05F
:100EA0008091620088608093620080E596E4000093
:100EB0000000000000000197D1F780916200877F59
:100EC0008093620080E596E40000000000000000CE
:100ED0000197D1F7215091F0E3CF8D81823271F4E7
:100EE0008E818E3F59F08F3F49F08C3F39F0815011
:100EF000803F18F480E090E003C002C081E090E001
:100F000062960FB6F894DEBF0FBECDBFDF91CF91D2
:100F100008951F93182F89B78F7E89BF0E94510BA8
:100F2000812F0E94290799B7906199BF882319F0F2
:100F300081E090E014C0959880E593EC00000000FB
:100F4000000000000197D1F7959A80E593EC00002E
:100F50000000000000000197D1F780E090E01F91B1
:100F60000895CF93DF93CDB7DEB762970FB6F894AD
:100F7000DEBF0FBECDBF22E02A8794E09B8731E021
:100F80003C872D8794E29E878F87288B398B83E05F
:100F90008A8B69E070E0CE010A960E94350B69E009
:100FA00070E0CE0101960E94190B97FDB7C08981B0
:100FB000823009F096C08D81843209F092C09E8102
:100FC0009F3FF9F421E08091620088608093620085
:100FD00080E596E400000000000000000197D1F7D2
:100FE00080916200877F8093620080E596E4000034
:100FF0000000000000000197D1F7215009F48EC0D5
:10100000E2CF9C3FF9F423E08091620088608093F6
:10101000620080E596E400000000000000000197F7
:10102000D1F780916200877F8093620080E596E42B
:1010300000000000000000000197D1F7215009F4E2
:101040006DC0E2CF9E3FF9F422E08091620088609B
:101050008093620080E596E400000000000000003C
:101060000197D1F780916200877F8093620080E5CD
:1010700096E400000000000000000197D1F7215025
:1010800009F44CC0E2CF892F8150803F60F48091F9
:1010900062008B7F809362001B989698909300016A
:1010A00080E090E03DC024E0809162008860809301
:1010B000620080E596E40000000000000000019757
:1010C000D1F780916200877F8093620080E596E48B
:1010D00000000000000000000197D1F72150F1F05E
:1010E000E3CF25E08091620088608093620080E514
:1010F00096E400000000000000000197D1F7809105
:101100006200877F8093620080E596E40000000023
:10111000000000000197D1F7215021F781E090E015
:1011200062960FB6F894DEBF0FBECDBFDF91CF91B0
:1011300008951F9310E089B78F7E89BF0E94510BDD
:101140008FEF0E94B10799B7906199BF8823A9F4E6
:10115000959880E593EC00000000000000000197E6
:10116000D1F7959A80E593EC0000000000000000A4
:101170000197D1F780E090E005C01F5F1330D9F6EA
:1011800081E090E01F910895CF93DF93CDB7DEB754
:1011900064970FB6F894DEBF0FBECDBF22E029835F
:1011A00094E09A8331E03B832C8391E29D838E838C
:1011B0002F83388783E08987809162008B7F8093BB
:1011C000620069E070E0CE0101960E94350B6BE091
:1011D00070E0CE010A960E94190B8A858230F1F4E4
:1011E0008B858630D9F48C858430C1F48D8584302C
:1011F000A9F48E85813291F48F85813079F48889C4
:10120000823061F489898F3F49F48A89823031F4D0
:101210008B89813019F48C898630F1F023E080913C
:10122000620088608093620080E596E40000000020
:10123000000000000197D1F780916200877F8093C2
:10124000620080E596E400000000000000000197C5
:10125000D1F7215021F7C5C021E08091620088605C
:101260008093620080E596E400000000000000002A
:101270000197D1F780916200877F8093620080E5BB
:1012800096E400000000000000000197D1F7215013
:1012900021F71B986BE070E0CE010A960E94190BB3
:1012A0008A858230F1F48B858630D9F48C85843040
:1012B000C1F48D858430A9F48E85813291F48F85B7
:1012C000823079F48889823061F489898F3F49F4CA
:1012D0008A89823031F48B89813019F48C89863087
:1012E000F1F023E08091620088608093620080E5E5
:1012F00096E400000000000000000197D1F7809103
:101300006200877F8093620080E596E40000000021
:10131000000000000197D1F7215021F761C022E0C1
:101320008091620088608093620080E596E400000E
:101330000000000000000197D1F780916200877FD4
:101340008093620080E596E4000000000000000049
:101350000197D1F7215021F796986BE070E0CE010C
:101360000A960E94190B8A858230E1F48B858630BB
:10137000C9F48C858430B1F48D85843099F48E85E0
:10138000813281F48F85833069F48889813051F40A
:101390008A89823039F48B89813021F48C898630B6
:1013A00009F428C023E08091620088608093620085
:1013B00080E596E400000000000000000197D1F7EE
:1013C00080916200877F8093620080E596E4000050
:1013D0000000000000000197D1F7215021F7969AF4
:1013E0001B9A809162008460809362008FEF0E945C
:1013F000C40850C0959821E0809162008860809375
:10140000620080E69AEE00000000000000000197F4
:10141000D1F780916200877F8093620080E69AEE28
:1014200000000000000000000197D1F7215021F7D3
:1014300022E08091620088608093620088EA91E6F1
:1014400000000000000000000197D1F780916200C9
:10145000877F8093620088EA91E600000000000028
:1014600000000197D1F7215021F780E593EC0000AF
:101470000000000000000197D1F7898980930001E6
:10148000959A969A1B9A809162008460809362007C
:1014900080E090E064960FB6F894DEBF0FBECDBF3B
:1014A000DF91CF91089589B78F7E89BF0E94510B3C
:1014B0008FEF0E94C40899B7906199BF882399F76C
:1014C000959880E593EC0000000000000000019773
:1014D000D1F7959A80E593EC000000000000000031
:1014E0000197D1F780E090E008959B01AC0184E082
:1014F000220F331F441F551F8A95D1F760E070E813
:1015000080E790E00E94620D215010929800209395
:10151000990088E980939A0086E080939D0010925C
:10152000070410920604109289041092880408950A
:101530001F920F920FB60F9211248F939F93EF93E8
:10154000FF9390919C00E0910604EF5FE093060406
:1015500080910704E81739F0FF27EA5FFC4F90837A
:1015600081E080930503FF91EF919F918F910F9000
:101570000FBE0F901F9018951F920F920FB60F92EB
:1015800011248F939F93EF93FF9390918804809100
:101590008904981769F0E0918904EF5FEF77E09391
:1015A0008904FF27E85FFB4F808180939C0005C082
:1015B00080919A008F7D80939A00FF91EF919F9187
:1015C0008F910F900FBE0F901F9018959091060469
:1015D000809107049817D1F3E0910704EF5FE0933F
:1015E0000704FF27EA5FFC4F808199270895282F81
:1015F000909188049F5F9F77809189049817E1F309
:10160000E92FFF27E85FFB4F2083909388048091A8
:101610009A00806280939A000895909106048091C8
:10162000070420E030E0981711F021E030E0C90114
:101630000895EF92FF920F931F93CF93DF937B0157
:10164000C0E0D0E08C0106C00E94E60AF801819358
:101650008F012196CE15DF05BCF3CE01DF91CF912E
:101660001F910F91FF90EF900895EF92FF920F93CB
:101670001F93CF93DF937B01C0E0D0E08C0106C0C5
:10168000F80181918F010E94F70A2196CE15DF059E
:10169000BCF3CE01DF91CF911F910F91FF90EF909E
:1016A0000895109207041092060408951092890478
:1016B000109288040895FF920F931F93CF93DF93A6
:1016C000EC01FC0101900020E9F73197FE2EF81A99
:1016D00000E010E006C0FE01E20FF11D80810E94D3
:1016E000F70A202F0F5F1F4F8F2D9927019608179C
:1016F000190789F7DF91CF911F910F91FF900895FE
:10170000FF920F931F93CF93DF93EC01FC010190A5
:101710000020E9F73197FE2EF81A00E010E006C02D
:10172000FE01E20FF11D80810E94F70A202F0F5F5A
:101730001F4F8F2D992701960817190789F7DF91F9
:10174000CF911F910F91FF9008951EBC10928A04B3
:1017500010928B0410928C0410928D048FED8CBD2E
:1017600081EB8DBD87B7846087BF1FBC82E08EBDD3
:10177000089587B78B7F87BF87B7846087BF6091E5
:101780008A0470918B0480918C0490918D0408954B
:1017900081EB8DBD8FED8CBD80918A0490918B047F
:1017A000A0918C04B0918D040196A11DB11D809370
:1017B0008A0490938B04A0938C04B0938D040895B5
:1017C00087B78B7F87BF089587B7846087BF0895E9
:1017D00013BE83B7846083BF87B7816087BF84E609
:1017E00082BF08951F920F920FB60F9211242F936C
:1017F0003F934F935F936F937F938F939F93AF9399
:10180000BF93EF93FF930E942C0D84E682BFFF915C
:10181000EF91BF91AF919F918F917F916F915F9168
:101820004F913F912F910F900FBE0F901F901895E1
:101830001F920F920FB60F9211242F933F934F9345
:101840005F936F937F938F939F93AF93BF93EF9328
:10185000FF9381EB8DBD8FED8CBD80918A049091BB
:101860008B04A0918C04B0918D040196A11DB11D33
:1018700080938A0490938B04A0938C04B0938D047E
:1018800088589341A040B04008F42AC00E94000745
:1018900010928A0410928B0410928C0410928D0482
:1018A00022E08091620088608093620084E194ED80
:1018B00000000000000000000197D1F78091620055
:1018C000877F8093620084E194ED000000000000B7
:1018D00000000197D1F7215021F787B78B7F87BF91
:1018E000FF91EF91BF91AF919F918F917F916F91F8
:1018F0005F914F913F912F910F900FBE0F901F90CE
:101900001895FB0180833197892F99278083319720
:10191000108231971082319780E88083CF01019740
:10192000FC0160E070E0608331976F5F7F4F6E3045
:101930007105C9F7242F3327F901EE0FFF1FEE0FB2
:10194000FF1FE257FB4F0E979183808381E090E069
:1019500002C0880F991F2A95E2F7282A089565E0AA
:10196000362E8091A2049091A30441969EBF8DBF14
:10197000189508951F920F920FB60F9211242F936E
:101980003F934F935F936F937F938F939F93AF9307
:10199000BF93EF93FF93CF93DF93832D99272DB7B9
:1019A0003EB7FC01EE0FFF1FEE0FFF1FE257FB4F8C
:1019B00031832083019665E070E00E944F0D9C0109
:1019C000831559F0822D9927022E02C0959587958F
:1019D0000A94E2F780FD04C0FFCFE5E03E2E01C08F
:1019E000322EF894E32DFF27EE0FFF1FEE0FFF1F9F
:1019F000E257FB4F808191819EBF8DBF7894DF912C
:101A0000CF91FF91EF91BF91AF919F918F917F9176
:101A10006F915F914F913F912F910F900FBE0F905B
:101A20001F9008959C01892BB1F0E32DFF2781E0E1
:101A300090E00E2E02C0880F991F0A94E2F780955D
:101A40002822EE0FFF1FEE0FFF1FE257FB4F3383DD
:101A500022830E94BA0C0895422D20E030E0E0E994
:101A6000F4E061E070E080819181009769F0019776
:101A700091838083892B41F4CB01022E02C0880F11
:101A8000991F0A94E2F7482B2F5F3F4F3496253079
:101A9000310549F7242E08950E94BA0CFDCF97FB1B
:101AA000092E07260AD077FD04D02ED006D00020BC
:101AB0001AF4709561957F4F0895F6F7909581958A
:101AC0009F4F0895A1E21A2EAA1BBB1BFD010DC05A
:101AD000AA1FBB1FEE1FFF1FA217B307E407F507DE
:101AE00020F0A21BB30BE40BF50B661F771F881FBA
:101AF000991F1A9469F760957095809590959B0150
:101B0000AC01BD01CF010895AA1BBB1B51E107C069
:101B1000AA1FBB1FA617B70710F0A61BB70B881F7D
:101B2000991F5A95A9F780959095BC01CD0108950C
:021B3000FFCFE5
:101B3200FFBBFF0700A7000000000000000000003C
:101B4200FFBBFF0700B7000000000000000000001C
:101B5200FFBBFF0700CE00000000000000000000F5
:101B6200FFBBFF0700DA00000000000000000000D9
:101B7200FFBBFF0700CF00000000000000000000D4
:101B8200FFBBFF0700DB00000000000000000000B8
:101B9200FFBBFF0700CC00000000000000000000B7
:021BA200FF0042
:00000001FF
