:100000000C9446000C9465000C9465000C946500FB
:100010000C9465000C9465000C9465000C946500CC
:100020000C9465000C9465000C9465000C946500BC
:100030000C9465000C9465000C9465000C946500AC
:100040000C9465000C9465000C9465000C9465009C
:100050000C9465000C9465000C9465000C9465008C
:100060000C9465000C9465000C9465000C9465007C
:100070000C9465000C9465000C9433050C945705A2
:100080000C9465000C9465000C94650011241FBE4F
:10009000CFEFD0E1DEBFCDBF11E0A0E0B1E0E6ECF4
:1000A000FCE000E00BBF02C007900D92A230B10748
:1000B000D9F712E0A2E0B1E001C01D92A738B10764
:1000C000E1F70E9467000C9462060C940000809196
:1000D000610088608093610080916200877F8093D7
:1000E000620081B3806781BB82B3806782BB139A51
:1000F0001B9A80916100846080936100809162000E
:1001000084608093620060E072EC81E090E00E9485
:10011000100578940E94EE0495981DC029E0809106
:10012000620088608093620080E596E40000000031
:10013000000000000197D1F780916200877F8093D3
:10014000620080E596E400000000000000000197D6
:10015000D1F7215021F70E94C3048823F9F694981F
:1001600080E291EA00000000000000000197D1F752
:10017000949A959A969A1B9A8091620084608093D3
:100180006200809100010E949B04892B09F040C00D
:10019000809162008B7F8093620025E080916200F5
:1001A00088608093620080E197E200000000000018
:1001B00000000197D1F780916200877F80936200F1
:1001C00080E197E200000000000000000197D1F7F5
:1001D0002150F1F0E3CF29E08091620088608093A4
:1001E000620080E596E40000000000000000019736
:1001F000D1F780916200877F8093620080E596E46A
:1002000000000000000000000197D1F7215021F705
:100210000E94C3048823F9F69498809162008B7F32
:100220008093620080E593EC000000000000000075
:100230000197D1F78091620084608093620080E52D
:1002400093EC00000000000000000197D1F7E5CF1B
:10025000CF93DF93CDB7DEB762970FB6F894DEBFCA
:100260000FBECDBF92E09A8784E08B8721E02C8778
:100270009D8786E28E871F86988B298B83E08A8BE9
:1002800069E070E0CE010A960E94D0051B9869E0F3
:1002900070E0CE0101960E94B40597FF1FC023E0D5
:1002A0008091620088608093620080E596E400009F
:1002B0000000000000000197D1F780916200877F65
:1002C0008093620080E596E40000000000000000DA
:1002D0000197D1F7215009F44CC0E2CF96988D8157
:1002E000863209F046C08E818F3F01F5959821E056
:1002F0008091620088608093620088EA91E6000045
:100300000000000000000197D1F780916200877F14
:100310008093620088EA91E600000000000000007F
:100320000197D1F7215009F424C0E2CF813009F5BB
:10033000949825E08091620088608093620088EA4A
:1003400091E600000000000000000197D1F78091C5
:100350006200877F8093620088EA91E600000000D7
:10036000000000000197D1F7215021F780E090E0D4
:1003700002C081E090E062960FB6F894DEBF0FBE37
:10038000CDBFDF91CF910895CF93DF93CDB7DEB787
:1003900062970FB6F894DEBF0FBECDBF22E02A876A
:1003A00094E09B8731E03C872D8792E29E878F8780
:1003B000288B398B83E08A8B69E070E0CE010A9646
:1003C0000E94D00569E070E0CE0101960E94B4055C
:1003D00097FF1EC023E080916200886080936200D6
:1003E00080E596E400000000000000000197D1F7CE
:1003F00080916200877F8093620080E596E4000030
:100400000000000000000197D1F7215091F0E3CFE8
:100410008D81823271F48E818E3F59F08F3F49F089
:100420008C3F39F08150803F18F480E090E003C0A9
:1004300002C081E090E062960FB6F894DEBF0FBE76
:10044000CDBFDF91CF910895CF93DF93CDB7DEB7C6
:1004500062970FB6F894DEBF0FBECDBF22E02A87A9
:1004600094E09B8731E03C872D8794E29E878F87BD
:10047000288B398B83E08A8B69E070E0CE010A9685
:100480000E94D00569E070E0CE0101960E94B4059B
:1004900097FDB7C08981823009F096C08D81843282
:1004A00009F092C09E819F3FF9F421E080916200A3
:1004B00088608093620080E596E400000000000000
:1004C00000000197D1F780916200877F80936200DE
:1004D00080E596E400000000000000000197D1F7DD
:1004E000215009F48EC0E2CF9C3FF9F423E08091C3
:1004F000620088608093620080E596E4000000005E
:10050000000000000197D1F780916200877F8093FF
:10051000620080E596E40000000000000000019702
:10052000D1F7215009F46DC0E2CF9E3FF9F422E0EB
:100530008091620088608093620080E596E400000C
:100540000000000000000197D1F780916200877FD2
:100550008093620080E596E4000000000000000047
:100560000197D1F7215009F44CC0E2CF892F815077
:10057000803F60F4809162008B7F809362001B98C3
:1005800096989093000180E090E03DC024E0809137
:10059000620088608093620080E596E400000000BD
:1005A000000000000197D1F780916200877F80935F
:1005B000620080E596E40000000000000000019762
:1005C000D1F72150F1F0E3CF25E0809162008860FF
:1005D0008093620080E596E40000000000000000C7
:1005E0000197D1F780916200877F8093620080E558
:1005F00096E400000000000000000197D1F72150B0
:1006000021F781E090E062960FB6F894DEBF0FBE4E
:10061000CDBFDF91CF910895CF93DF93CDB7DEB7F4
:1006200064970FB6F894DEBF0FBECDBF22E02983DA
:1006300094E09A8331E03B832C8391E29D838E8307
:100640002F83388783E08987809162008B7F809336
:10065000620069E070E0CE0101960E94D0056BE077
:1006600070E0CE010A960E94B4058A858230F1F4CA
:100670008B858630D9F48C858430C1F48D858430A7
:10068000A9F48E85813291F48F85813079F488893F
:10069000823061F489898F3F49F48A89823031F44C
:1006A0008B89813019F48C898630F1F023E08091B8
:1006B000620088608093620080E596E4000000009C
:1006C000000000000197D1F780916200877F80933E
:1006D000620080E596E40000000000000000019741
:1006E000D1F7215021F7C5C021E0809162008860D8
:1006F0008093620080E596E40000000000000000A6
:100700000197D1F780916200877F8093620080E536
:1007100096E400000000000000000197D1F721508E
:1007200021F71B986BE070E0CE010A960E94B40599
:100730008A858230F1F48B858630D9F48C858430BB
:10074000C1F48D858430A9F48E85813291F48F8532
:10075000823079F48889823061F489898F3F49F445
:100760008A89823031F48B89813019F48C89863002
:10077000F1F023E08091620088608093620080E560
:1007800096E400000000000000000197D1F780917E
:100790006200877F8093620080E596E4000000009D
:1007A000000000000197D1F7215021F761C022E03D
:1007B0008091620088608093620080E596E400008A
:1007C0000000000000000197D1F780916200877F50
:1007D0008093620080E596E40000000000000000C5
:1007E0000197D1F7215021F796986BE070E0CE0188
:1007F0000A960E94B4058A858230E1F48B858630A2
:10080000C9F48C858430B1F48D85843099F48E855B
:10081000813281F48F85833069F48889813051F485
:100820008A89823039F48B89813021F48C89863031
:1008300009F428C023E08091620088608093620000
:1008400080E596E400000000000000000197D1F769
:1008500080916200877F8093620080E596E40000CB
:100860000000000000000197D1F7215021F7969A6F
:100870001B9A809162008460809362008FEF0E94D7
:100880000C0350C0959821E08091620088608093AD
:10089000620080E69AEE0000000000000000019770
:1008A000D1F780916200877F8093620080E69AEEA4
:1008B00000000000000000000197D1F7215021F74F
:1008C00022E08091620088608093620088EA91E66D
:1008D00000000000000000000197D1F78091620045
:1008E000877F8093620088EA91E6000000000000A4
:1008F00000000197D1F7215021F780E593EC00002B
:100900000000000000000197D1F789898093000161
:10091000959A969A1B9A80916200846080936200F7
:1009200080E090E064960FB6F894DEBF0FBECDBFB6
:10093000DF91CF9108951F93182F89B78F7E89BFBC
:100940000E94EC05812F0E94C40199B7906199BF64
:10095000882319F081E090E014C0959880E593EC2D
:1009600000000000000000000197D1F7959A80E593
:1009700093EC00000000000000000197D1F780E038
:1009800090E01F9108951F9310E089B78F7E89BF73
:100990000E94EC058FEF0E94240299B7906199BFE5
:1009A0008823A9F4959880E593EC000000000000EE
:1009B00000000197D1F7959A80E593EC00000000C4
:1009C000000000000197D1F780E090E005C01F5FB4
:1009D0001330D9F681E090E01F91089589B78F7E9A
:1009E00089BF0E94EC058FEF0E940C0399B79061BC
:1009F00099BF882399F7959880E593EC0000000053
:100A0000000000000197D1F7959A80E593EC000073
:100A10000000000000000197D1F780E090E0089509
:100A20009B01AC0184E0220F331F441F551F8A95A0
:100A3000D1F760E070E880E790E00E944006215026
:100A4000109298002093990088E980939A0086E09C
:100A500080939D001092040210920302109286026D
:100A60001092850208951F920F920FB60F921124D3
:100A70008F939F93EF93FF9390919C00E0910302DB
:100A8000EF5FE093030280910402E81739F0FF273B
:100A9000ED5FFE4F908381E080930201FF91EF9123
:100AA0009F918F910F900FBE0F901F9018951F92DE
:100AB0000F920FB60F9211248F939F93EF93FF9392
:100AC0009091850280918602981769F0E0918602E4
:100AD000EF5FEF77E0938602FF27EB5FFD4F8081AA
:100AE00080939C0005C080919A008F7D80939A002E
:100AF000FF91EF919F918F910F900FBE0F901F90DC
:100B0000189590910302809104029817D1F3E09117
:100B10000402EF5FE0930402FF27ED5FFE4F808148
:100B200099270895282F909185029F5F9F77809144
:100B300086029817E1F3E92FFF27EB5FFD4F208333
:100B40009093850280919A00806280939A00089524
:100B5000909103028091040220E030E0981711F098
:100B600021E030E0C9010895EF92FF920F931F93A7
:100B7000CF93DF937B01C0E0D0E08C0106C00E94E0
:100B80008105F80181938F012196CE15DF05BCF315
:100B9000CE01DF91CF911F910F91FF90EF900895BB
:100BA000EF92FF920F931F93CF93DF937B01C0E0EF
:100BB000D0E08C0106C0F80181918F010E9492055E
:100BC0002196CE15DF05BCF3CE01DF91CF911F91A9
:100BD0000F91FF90EF90089510920402109203027B
:100BE000089510928602109285020895FF920F9345
:100BF0001F93CF93DF93EC01FC0101900020E9F7F4
:100C00003197FE2EF81A00E010E006C0FE01E20F58
:100C1000F11D80810E949205202F0F5F1F4F8F2DA5
:100C2000992701960817190789F7DF91CF911F912E
:100C30000F91FF900895FF920F931F93CF93DF932F
:100C4000EC01FC0101900020E9F73197FE2EF81A23
:100C500000E010E006C0FE01E20FF11D80810E945D
:100C60009205202F0F5F1F4F8F2D99270196081790
:100C7000190789F7DF91CF911F910F91FF90089588
:100C8000A1E21A2EAA1BBB1BFD010DC0AA1FBB1F90
:100C9000EE1FFF1FA217B307E407F50720F0A21B02
:100CA000B30BE40BF50B661F771F881F991F1A946F
:100CB00069F760957095809590959B01AC01BD0199
:060CC000CF010895FFCFF3
:020CC600FF002D
:00000001FF
